{
  "contractName": "Insurance",
  "abi": [
    {
      "constant": true,
      "inputs": [
        {
          "name": "",
          "type": "address"
        }
      ],
      "name": "accounts",
      "outputs": [
        {
          "name": "_type",
          "type": "uint8"
        }
      ],
      "payable": false,
      "stateMutability": "view",
      "type": "function"
    },
    {
      "constant": true,
      "inputs": [],
      "name": "price",
      "outputs": [
        {
          "name": "",
          "type": "uint256"
        }
      ],
      "payable": false,
      "stateMutability": "view",
      "type": "function"
    },
    {
      "constant": true,
      "inputs": [
        {
          "name": "",
          "type": "address"
        },
        {
          "name": "",
          "type": "address"
        }
      ],
      "name": "bills",
      "outputs": [
        {
          "name": "value",
          "type": "uint256"
        }
      ],
      "payable": false,
      "stateMutability": "view",
      "type": "function"
    },
    {
      "constant": true,
      "inputs": [],
      "name": "percentage",
      "outputs": [
        {
          "name": "",
          "type": "uint256"
        }
      ],
      "payable": false,
      "stateMutability": "view",
      "type": "function"
    },
    {
      "inputs": [
        {
          "name": "pri",
          "type": "uint256"
        },
        {
          "name": "per",
          "type": "uint256"
        }
      ],
      "payable": false,
      "stateMutability": "nonpayable",
      "type": "constructor"
    },
    {
      "constant": true,
      "inputs": [],
      "name": "getPrice",
      "outputs": [
        {
          "name": "",
          "type": "uint256"
        }
      ],
      "payable": false,
      "stateMutability": "view",
      "type": "function"
    },
    {
      "constant": false,
      "inputs": [
        {
          "name": "pri",
          "type": "uint256"
        }
      ],
      "name": "setPrice",
      "outputs": [],
      "payable": false,
      "stateMutability": "nonpayable",
      "type": "function"
    },
    {
      "constant": true,
      "inputs": [],
      "name": "getPercentage",
      "outputs": [
        {
          "name": "",
          "type": "uint256"
        }
      ],
      "payable": false,
      "stateMutability": "view",
      "type": "function"
    },
    {
      "constant": false,
      "inputs": [
        {
          "name": "per",
          "type": "uint256"
        }
      ],
      "name": "setPercentage",
      "outputs": [],
      "payable": false,
      "stateMutability": "nonpayable",
      "type": "function"
    },
    {
      "constant": false,
      "inputs": [],
      "name": "addHospital",
      "outputs": [],
      "payable": false,
      "stateMutability": "nonpayable",
      "type": "function"
    },
    {
      "constant": false,
      "inputs": [],
      "name": "addPerson",
      "outputs": [],
      "payable": true,
      "stateMutability": "payable",
      "type": "function"
    },
    {
      "constant": false,
      "inputs": [
        {
          "name": "to",
          "type": "address"
        },
        {
          "name": "value",
          "type": "uint256"
        }
      ],
      "name": "giveBill",
      "outputs": [],
      "payable": false,
      "stateMutability": "nonpayable",
      "type": "function"
    },
    {
      "constant": true,
      "inputs": [
        {
          "name": "to",
          "type": "address"
        }
      ],
      "name": "checkFee",
      "outputs": [
        {
          "name": "",
          "type": "uint256"
        }
      ],
      "payable": false,
      "stateMutability": "view",
      "type": "function"
    },
    {
      "constant": false,
      "inputs": [
        {
          "name": "to",
          "type": "address"
        }
      ],
      "name": "pay",
      "outputs": [],
      "payable": true,
      "stateMutability": "payable",
      "type": "function"
    },
    {
      "constant": false,
      "inputs": [],
      "name": "killself",
      "outputs": [],
      "payable": false,
      "stateMutability": "nonpayable",
      "type": "function"
    }
  ],
  "bytecode": "0x608060405234801561001057600080fd5b506040516040806116c18339810180604052604081101561003057600080fd5b810190808051906020019092919080519060200190929190505050806000811015801561005e575060648111155b15156100f8576040517f08c379a000000000000000000000000000000000000000000000000000000000815260040180806020018281038252602f8152602001807f54686520636f6d70656e736174696f6e2070657263656e746167652073686f7581526020017f6c6420696e205b302c3130305d252e000000000000000000000000000000000081525060400191505060405180910390fd5b336000806101000a81548173ffffffffffffffffffffffffffffffffffffffff021916908373ffffffffffffffffffffffffffffffffffffffff1602179055508260018190555081600281905550505050611569806101586000396000f3fe6080604052600436106100d0576000357c0100000000000000000000000000000000000000000000000000000000900463ffffffff1680630b2accb2146100d55780630c11dedd14610100578063170cda4614610144578063221900cb1461015b5780635da4a1d3146101b65780635e5c06e2146101f157806391b7f5ed1461026457806398d5fdca1461029f578063a035b1fe146102ca578063a4963c88146102f5578063c22ef3621461037a578063c78ad77f14610384578063cf910b8f146103af578063eb325cc714610414575b600080fd5b3480156100e157600080fd5b506100ea61042b565b6040518082815260200191505060405180910390f35b6101426004803603602081101561011657600080fd5b81019080803573ffffffffffffffffffffffffffffffffffffffff169060200190929190505050610435565b005b34801561015057600080fd5b50610159610957565b005b34801561016757600080fd5b506101b46004803603604081101561017e57600080fd5b81019080803573ffffffffffffffffffffffffffffffffffffffff16906020019092919080359060200190929190505050610a9a565b005b3480156101c257600080fd5b506101ef600480360360208110156101d957600080fd5b8101908080359060200190929190505050610e22565b005b3480156101fd57600080fd5b506102406004803603602081101561021457600080fd5b81019080803573ffffffffffffffffffffffffffffffffffffffff169060200190929190505050610fc4565b6040518082600281111561025057fe5b60ff16815260200191505060405180910390f35b34801561027057600080fd5b5061029d6004803603602081101561028757600080fd5b8101908080359060200190929190505050610fef565b005b3480156102ab57600080fd5b506102b46110e3565b6040518082815260200191505060405180910390f35b3480156102d657600080fd5b506102df6110ed565b6040518082815260200191505060405180910390f35b34801561030157600080fd5b506103646004803603604081101561031857600080fd5b81019080803573ffffffffffffffffffffffffffffffffffffffff169060200190929190803573ffffffffffffffffffffffffffffffffffffffff1690602001909291905050506110f3565b6040518082815260200191505060405180910390f35b61038261111e565b005b34801561039057600080fd5b50610399611300565b6040518082815260200191505060405180910390f35b3480156103bb57600080fd5b506103fe600480360360208110156103d257600080fd5b81019080803573ffffffffffffffffffffffffffffffffffffffff169060200190929190505050611306565b6040518082815260200191505060405180910390f35b34801561042057600080fd5b506104296114ac565b005b6000600254905090565b6000600460008373ffffffffffffffffffffffffffffffffffffffff1673ffffffffffffffffffffffffffffffffffffffff16815260200190815260200160002060003373ffffffffffffffffffffffffffffffffffffffff1673ffffffffffffffffffffffffffffffffffffffff1681526020019081526020016000206000015414151515610553576040517f08c379a00000000000000000000000000000000000000000000000000000000081526004018080602001828103825260218152602001807f596f7520646f206e6f74206861766520616e792062696c6c20696e737572656481526020017f2e0000000000000000000000000000000000000000000000000000000000000081525060400191505060405180910390fd5b34600460008373ffffffffffffffffffffffffffffffffffffffff1673ffffffffffffffffffffffffffffffffffffffff16815260200190815260200160002060003373ffffffffffffffffffffffffffffffffffffffff1673ffffffffffffffffffffffffffffffffffffffff1681526020019081526020016000206000015414151561066f576040517f08c379a00000000000000000000000000000000000000000000000000000000081526004018080602001828103825260258152602001807f506c6561736520636865636b2074686520616d6f756e74206f6620796f75722081526020017f62696c6c2e00000000000000000000000000000000000000000000000000000081525060400191505060405180910390fd5b6064600254600460008473ffffffffffffffffffffffffffffffffffffffff1673ffffffffffffffffffffffffffffffffffffffff16815260200190815260200160002060003373ffffffffffffffffffffffffffffffffffffffff1673ffffffffffffffffffffffffffffffffffffffff16815260200190815260200160002060000154028115156106fe57fe5b043073ffffffffffffffffffffffffffffffffffffffff16311115156107b2576040517f08c379a00000000000000000000000000000000000000000000000000000000081526004018080602001828103825260258152602001807f54686520696e737572616e636520696e737469747574696f6e20676f6573206281526020017f726f6b652e00000000000000000000000000000000000000000000000000000081525060400191505060405180910390fd5b8073ffffffffffffffffffffffffffffffffffffffff166108fc349081150290604051600060405180830381858888f193505050501580156107f8573d6000803e3d6000fd5b503373ffffffffffffffffffffffffffffffffffffffff166108fc6064600254600460008673ffffffffffffffffffffffffffffffffffffffff1673ffffffffffffffffffffffffffffffffffffffff16815260200190815260200160002060003373ffffffffffffffffffffffffffffffffffffffff1673ffffffffffffffffffffffffffffffffffffffff16815260200190815260200160002060000154028115156108a257fe5b049081150290604051600060405180830381858888f193505050501580156108ce573d6000803e3d6000fd5b506000600460008373ffffffffffffffffffffffffffffffffffffffff1673ffffffffffffffffffffffffffffffffffffffff16815260200190815260200160002060003373ffffffffffffffffffffffffffffffffffffffff1673ffffffffffffffffffffffffffffffffffffffff1681526020019081526020016000206000018190555050565b6000600281111561096457fe5b600360003373ffffffffffffffffffffffffffffffffffffffff1673ffffffffffffffffffffffffffffffffffffffff16815260200190815260200160002060000160009054906101000a900460ff1660028111156109bf57fe5b141515610a34576040517f08c379a000000000000000000000000000000000000000000000000000000000815260040180806020018281038252601c8152602001807f596f7520686176652070617274696369706174656420696e2069742e0000000081525060200191505060405180910390fd5b6001600360003373ffffffffffffffffffffffffffffffffffffffff1673ffffffffffffffffffffffffffffffffffffffff16815260200190815260200160002060000160006101000a81548160ff02191690836002811115610a9357fe5b0217905550565b3360016002811115610aa857fe5b600360008373ffffffffffffffffffffffffffffffffffffffff1673ffffffffffffffffffffffffffffffffffffffff16815260200190815260200160002060000160009054906101000a900460ff166002811115610b0357fe5b141515610b9e576040517f08c379a00000000000000000000000000000000000000000000000000000000081526004018080602001828103825260378152602001807f4f6e6c792074686520686f73706974616c20696e207468697320696e7375726181526020017f6e63652063616e20626520696e636c7564656420696e2e00000000000000000081525060400191505060405180910390fd5b82600280811115610bab57fe5b600360008373ffffffffffffffffffffffffffffffffffffffff1673ffffffffffffffffffffffffffffffffffffffff16815260200190815260200160002060000160009054906101000a900460ff166002811115610c0657fe5b141515610ca1576040517f08c379a00000000000000000000000000000000000000000000000000000000081526004018080602001828103825260278152602001807f4f6e6c7920696e737572656420706572736f6e2063616e20626520696e636c7581526020017f64656420696e2e0000000000000000000000000000000000000000000000000081525060400191505060405180910390fd5b6000600460003373ffffffffffffffffffffffffffffffffffffffff1673ffffffffffffffffffffffffffffffffffffffff16815260200190815260200160002060008673ffffffffffffffffffffffffffffffffffffffff1673ffffffffffffffffffffffffffffffffffffffff16815260200190815260200160002060000154141515610d98576040517f08c379a00000000000000000000000000000000000000000000000000000000081526004018080602001828103825260158152602001807f5468652062696c6c2068617320657869737465642e000000000000000000000081525060200191505060405180910390fd5b82600460003373ffffffffffffffffffffffffffffffffffffffff1673ffffffffffffffffffffffffffffffffffffffff16815260200190815260200160002060008673ffffffffffffffffffffffffffffffffffffffff1673ffffffffffffffffffffffffffffffffffffffff1681526020019081526020016000206000018190555050505050565b8060008110158015610e35575060648111155b1515610ecf576040517f08c379a000000000000000000000000000000000000000000000000000000000815260040180806020018281038252602f8152602001807f54686520636f6d70656e736174696f6e2070657263656e746167652073686f7581526020017f6c6420696e205b302c3130305d252e000000000000000000000000000000000081525060400191505060405180910390fd5b6000809054906101000a900473ffffffffffffffffffffffffffffffffffffffff1673ffffffffffffffffffffffffffffffffffffffff163373ffffffffffffffffffffffffffffffffffffffff16141515610fb9576040517f08c379a00000000000000000000000000000000000000000000000000000000081526004018080602001828103825260298152602001807f4f6e6c792074686520696e737572616e636520696e737469747574696f6e206381526020017f616e20646f2069742e000000000000000000000000000000000000000000000081525060400191505060405180910390fd5b816002819055505050565b60036020528060005260406000206000915090508060000160009054906101000a900460ff16905081565b6000809054906101000a900473ffffffffffffffffffffffffffffffffffffffff1673ffffffffffffffffffffffffffffffffffffffff163373ffffffffffffffffffffffffffffffffffffffff161415156110d9576040517f08c379a00000000000000000000000000000000000000000000000000000000081526004018080602001828103825260298152602001807f4f6e6c792074686520696e737572616e636520696e737469747574696f6e206381526020017f616e20646f2069742e000000000000000000000000000000000000000000000081525060400191505060405180910390fd5b8060018190555050565b6000600154905090565b60015481565b6004602052816000526040600020602052806000526040600020600091509150508060000154905081565b6000600281111561112b57fe5b600360003373ffffffffffffffffffffffffffffffffffffffff1673ffffffffffffffffffffffffffffffffffffffff16815260200190815260200160002060000160009054906101000a900460ff16600281111561118657fe5b1415156111fb576040517f08c379a000000000000000000000000000000000000000000000000000000000815260040180806020018281038252601c8152602001807f596f7520686176652070617274696369706174656420696e2069742e0000000081525060200191505060405180910390fd5b6001543414151561129a576040517f08c379a00000000000000000000000000000000000000000000000000000000081526004018080602001828103825260218152602001807f596f752073686f756c642070617920666f722074686520696e737572616e636581526020017f2e0000000000000000000000000000000000000000000000000000000000000081525060400191505060405180910390fd5b6002600360003373ffffffffffffffffffffffffffffffffffffffff1673ffffffffffffffffffffffffffffffffffffffff16815260200190815260200160002060000160006101000a81548160ff021916908360028111156112f957fe5b0217905550565b60025481565b600080600460008473ffffffffffffffffffffffffffffffffffffffff1673ffffffffffffffffffffffffffffffffffffffff16815260200190815260200160002060003373ffffffffffffffffffffffffffffffffffffffff1673ffffffffffffffffffffffffffffffffffffffff1681526020019081526020016000206000015414151515611425576040517f08c379a00000000000000000000000000000000000000000000000000000000081526004018080602001828103825260218152602001807f596f7520646f206e6f74206861766520616e792062696c6c20696e737572656481526020017f2e0000000000000000000000000000000000000000000000000000000000000081525060400191505060405180910390fd5b600460008373ffffffffffffffffffffffffffffffffffffffff1673ffffffffffffffffffffffffffffffffffffffff16815260200190815260200160002060003373ffffffffffffffffffffffffffffffffffffffff1673ffffffffffffffffffffffffffffffffffffffff168152602001908152602001600020600001549050919050565b3373ffffffffffffffffffffffffffffffffffffffff166000809054906101000a900473ffffffffffffffffffffffffffffffffffffffff1673ffffffffffffffffffffffffffffffffffffffff16141561153b576000809054906101000a900473ffffffffffffffffffffffffffffffffffffffff1673ffffffffffffffffffffffffffffffffffffffff16ff5b56fea165627a7a7230582073b77bb64d69702a831e6ac1d4a60c4b6c60582a6322dab60ad16a9b7b2994830029",
  "source": "pragma solidity ^0.5.0;\r\n\r\ncontract Insurance {\r\n    // represent the identity of a address\r\n    enum Type {unknow, hospital, person}\r\n\r\n    struct Account {\r\n        Type _type;\r\n    }\r\n\r\n    // a bill insured\r\n    struct Bill {\r\n        uint value;\r\n    }\r\n\r\n    // The one who can create a insurance\r\n    address payable insurance_institution;\r\n    uint public price;\r\n    uint public percentage;\r\n \r\n    mapping(address => Account) public accounts;\r\n    mapping(address => mapping(address => Bill)) public bills;\r\n\r\n    modifier onlyHospital(address to) {\r\n        require(\r\n            accounts[to]._type == Type.hospital,\r\n            \"Only the hospital in this insurance can be included in.\"\r\n        );\r\n        _;\r\n    }\r\n\r\n    modifier onlyPerson(address to) {\r\n        require(\r\n            accounts[to]._type == Type.person,\r\n            \"Only insured person can be included in.\"\r\n        );\r\n        _;\r\n    }\r\n\r\n    modifier onlyInsurance() {\r\n        require(\r\n            msg.sender == insurance_institution, \r\n            \"Only the insurance institution can do it.\"\r\n        );\r\n        _;\r\n    }\r\n\r\n    modifier legalPercentage(uint per) {\r\n        require(\r\n            per >= 0 && per <= 100, \r\n            \"The compensation percentage should in [0,100]%.\"\r\n        );\r\n        _;\r\n    }\r\n\r\n\r\n    // The insurance institution initiates a insurance contract. \r\n    constructor(uint pri, uint per) public legalPercentage(per){\r\n        insurance_institution = msg.sender;\r\n        price = pri;\r\n        percentage = per;\r\n    }\r\n\r\n    // Get the price for person to buy the insurance.\r\n    function getPrice() public view returns (uint){\r\n        return price;\r\n    }\r\n\r\n    // Modify the price for person to buy the insurance.\r\n    function setPrice(uint pri) public onlyInsurance{\r\n        price = pri;\r\n    }\r\n\r\n    // Get the compensation percentage.\r\n    function getPercentage() public view returns (uint){\r\n        return percentage;\r\n    }\r\n\r\n    // Modify the compensation percentage.\r\n    function setPercentage(uint per) public legalPercentage(per) onlyInsurance{\r\n        percentage = per;\r\n    }\r\n\r\n    // Add a hospital to the insurance.\r\n    function addHospital() public {\r\n        require(\r\n            accounts[msg.sender]._type == Type.unknow,\r\n            \"You have participated in it.\"\r\n        );\r\n        accounts[msg.sender]._type = Type.hospital;\r\n    }\r\n\r\n    // Add a person to the insurance.\r\n    function addPerson() public payable{\r\n        require(\r\n            accounts[msg.sender]._type == Type.unknow,\r\n            \"You have participated in it.\"\r\n        );\r\n        require(\r\n            msg.value == price,\r\n            \"You should pay for the insurance.\"\r\n        );\r\n        accounts[msg.sender]._type = Type.person;\r\n    }\r\n\r\n    // The hospital make out the bill.\r\n    function giveBill(address to, uint value) public onlyHospital(msg.sender) onlyPerson(to){\r\n        require(\r\n            bills[msg.sender][to].value == 0,\r\n            \"The bill has existed.\"\r\n        );\r\n        bills[msg.sender][to].value = value;\r\n    }\r\n\r\n    // The patient check his bill.\r\n    function checkFee(address to) public view returns (uint){\r\n        require(\r\n            bills[to][msg.sender].value != 0,\r\n            \"You do not have any bill insured.\"\r\n        );\r\n        return bills[to][msg.sender].value;\r\n    }\r\n\r\n    // The patient pay for the bill.\r\n    function pay(address payable to) public payable {\r\n        require(\r\n            bills[to][msg.sender].value != 0,\r\n            \"You do not have any bill insured.\"\r\n        );\r\n        require(\r\n            bills[to][msg.sender].value == msg.value,\r\n            \"Please check the amount of your bill.\"\r\n        );\r\n        require(\r\n            address(this).balance > bills[to][msg.sender].value*percentage/100,\r\n            \"The insurance institution goes broke.\"\r\n        );\r\n        to.transfer(msg.value);\r\n        msg.sender.transfer(bills[to][msg.sender].value*percentage/100);\r\n        bills[to][msg.sender].value = 0;\r\n    }\r\n\r\n    function killself() public {\r\n        if (insurance_institution == msg.sender) { \r\n            selfdestruct(insurance_institution);\r\n        }\r\n    }\r\n    \r\n}",
  "sourcePath": "E:/320work/homework/blockchain/project/code/blockchain/truffle/contracts/Insurance.sol",
  "compiler": {
    "name": "solc",
    "version": "0.5.0+commit.1d4f565a.Emscripten.clang"
  },
  "schemaVersion": "3.0.0",
  "updatedAt": "2018-12-30T14:20:20.845Z",
  "devdoc": {
    "methods": {}
  },
  "userdoc": {
    "methods": {}
  }
}